:10000000012883160614861006118611061207149D
:1000100087140715871508148312003086000E30E8
:1000200087000130A300A2000830A4000930A50019
:100030000830A6000930A7000030A8000030B0004A
:100040000030A9000030A900ED2006182B20ED207B
:1000500008187B202428ED20013023020319632097
:10006000ED200230230203196920ED200330230222
:1000700003196F20ED200430230203197520ED20B1
:100080000530230203199D20A30A080021185328D4
:100090005528A1185728592821195B285D28A1192E
:1000A0005F2861280800861449288610492806150B
:1000B0004C2806114C2886154F2886114F28061605
:1000C0005228061252282408A10046200618632848
:1000D00008002508A10046200618692808002608FF
:1000E000A100462006186F2808002708A100462016
:1000F000061875280800ED20013022020319BF20E0
:10010000ED20023022020319C520ED200330220227
:100110000319CB20ED20043022020319D120ED2059
:100120000530220203199620A20A08000030A2001E
:10013000D720E2200818962808000030A3000618EF
:100140009D2808002114B5282110B528A114B8282D
:10015000A110B8282115BB282111BB28A115BE2844
:10016000A111BE288719A228A4280719A628A82803
:100170008718AA28AC280718AE28B0280800B22093
:100180002108A8000818BF280800B2202108A900EB
:100190000818C5280800B2202108B0000818CB288C
:1001A0000800B2202108B1000818D128080025084D
:1001B0002902031CE128DC282808A4002908A5003E
:1001C0000800080027083102031CE728EC28300843
:1001D000A6003108A700080008008730B2001430DC
:0E01E000B300B20BF428B30BF128F628080088
:02400E00713F00
:00000001FF
