:100000000128831686018717071787160716071515
:100010008715831200308600871B4528071B2D2873
:1000200012280C28871A202816280C28071A1C28A2
:100030005F30A1002A200C280630A1002A200C28BD
:10004000071A26283B30A1002A200C282F30A100B7
:100050002A200C28210886000800871A3B2831280E
:100060000C28071A37286630A1002A200C286D308A
:10007000A1002A200C28071A41287D30A1002A203F
:100080000C280730A1002A200C28071E4B286F30AF
:0E009000A1002A200C287F30A1002A200C2875
:02400E00713F00
:00000001FF
