:1000000001288316860188018312003086000030A3
:100010008800CA30A4002030A5001030A900552067
:1000200058205B202220A80A29082802031D122834
:100030005B201B20C6284B20A80A29082802031D84
:100040001B28C6285E202308013EA30025082302A2
:10005000031D22282D205820080063202208013E7D
:10006000A20024082202031D2D285520412008004B
:10007000A530A600A60B3A280800382021088800E1
:10008000080068202208013EA20024082202031D65
:100090004128552008006D202308013EA3002508B3
:1000A0002302031D4B28582008000030A20008003E
:1000B0000030A30008000030A80008009620862029
:1000C0007A2092200800C220B220A620BE2008007C
:1000D000BE20A620B220C220080092207A208620CE
:1000E000962008000130A1003D2008000230A10048
:1000F0003D2008000330A1003D2008000430A1008D
:100100003D2008000530A1003D2008000630A10078
:100110003D2008000730A1003D2008000830A10064
:100120003D2008000930A1003D2008000C30A1004E
:100130003D2008000030A1003D2008001030A10043
:100140003D2008002030A1003D2008003030A100F3
:100150003D2008004030A1003D2008005030A100A3
:100160003D2008006030A1003D2008007030A10053
:100170003D2008008030A1003D2008009030A10003
:0C0180003D200800C030A1003D20080018
:02400E00713F00
:00000001FF
