:1000000001288312031341309F0083160313073026
:1000100081000E309F0005148601831203138601B0
:100020008316860101308700831200308600831218
:10003000013086000430C1000830C2000530C30022
:100040000030C4000030C500071827202E28C50A3C
:1000500045192B2008000030C50008004518342839
:100060003128C5183D283728C51840283A284108A6
:10007000C40043284208C40043284308C40043285E
:100080005030C4004328C41B7B28441B63284B28E2
:10009000210886000800C41A59284F282428441A29
:1000A00055285F30A100482024280630A1004820B0
:1000B0002428441A5F283B30A100482024282F30F0
:1000C000A10048202428C41A712867282428441A2B
:1000D0006D286630A100482024286D30A1004820FA
:1000E0002428441A77287D30A1004820242807308E
:1000F000A10048202428441E81286F30A1004820F8
:0A01000024287F30A10048202428A5
:02400E00713F00
:00000001FF
