:1000000001288312031341309F0083160313073026
:1000100081000E309F0005148601831203138601B0
:100020008316860101308700831200308600831218
:10003000013086000430C0000830C1000530C20025
:100040000030C3000030C400071827202E28C40A3F
:1000500044192B2008000030C4000800441834283C
:100060003128C4183D283728C41840283A284008A9
:10007000C30043284108C30043284208C300432863
:100080000230C3004328431852284628C3184F287B
:10009000492843196A284C28C31976285E28431931
:1000A00070286428C3185B28552843196D285828E0
:1000B000C319792861284319732867283F308600BF
:1000C00024280630860024285B30860024284F3000
:1000D000860024286630860024286D308600242877
:1000E0007D30860024280730860024287F30860053
:0800F000242867308600242853
:02400E00713F00
:00000001FF
