:1000000001288312031341309F0083160313073026
:1000100081000E309F0005148601831203138601B0
:100020008316860101308700831200308600831218
:10003000013086000430C1000830C2000530C30022
:100040000030C4000030C500071827202E28C50A3C
:1000500045192B2008000030C50008004518342839
:100060003128C5183D283728C51840283A284108A6
:10007000C40043284208C40043284308C40043285E
:100080000230C4004328C41B7C28441B64284C282D
:100090002428210886000800C41A5A28502843281A
:1000A000441A56285F30A100492043280630A10099
:1000B00049204328441A60283B30A10049204328A6
:1000C0002F30A10049204328C41A722868284328E9
:1000D000441A6E286630A100492043286D30A100E3
:1000E00049204328441A78287D30A100492043281C
:1000F0000730A10049204328441E82286F30A10008
:0C010000492043287F30A10049204328FB
:02400E00713F00
:00000001FF
