:1000000000008312031341309F008316031307304F
:1000100081000E309F000514851005118511051211
:1000200085120910891086018312031303156E20AF
:100030000B111F151F191A281E08A00020082228BE
:1000400021282128D2302002031C2A280030A400B5
:100050007F202028C2302002031C32280130A40057
:1000600087202028AE302002031C3A280230A4004A
:100070008F2020289E302002031C42280330A40039
:10008000972020288A302002031C4A280430A4002C
:100090009F20202875302002031C52280530A40020
:1000A000A720202852302002031C5A280630A40022
:1000B000AF20202833302002031C62280730A40020
:1000C000B72020281C302002031C6A280830A40016
:1000D000BF2020280930A400C7202028FF30A3001B
:1000E000A200A10074200800A30B74287820080047
:1000F000A20B78287C200800A10B7C280800851022
:10010000051185110512851209108914080085143E
:100110000516851609148914051185110800851026
:10012000051105128512891085150914080085101E
:10013000051185110512891009148516080005118D
:10014000851109108910851405168516080085117A
:1001500005120910891085108516051508008511EE
:1001600005128512091089108510051508008510E3
:1001700005118511051685160914891408008510C6
:1001800005118511051285120910891008008510C6
:0E019000051185110512091089108516080049
:02400E00713F00
:00000001FF
