:100000000128831686018817081788160816081510
:100010008815831200308600881B4528081B2D2870
:1000200012280C28881A202816280C28081A1C28A0
:100030003F30A1002A200C280630A1002A200C28DD
:10004000081A26285B30A1002A200C284F30A10076
:100050002A200C28210886000800881A3B2831280D
:100060000C28081A37286630A1002A200C286D3089
:10007000A1002A200C28081A41287D30A1002A203E
:100080000C280730A1002A200C28081E4B286F30AE
:0E009000A1002A200C287F30A1002A200C2875
:02400E00713F00
:00000001FF
