:1000000001288316860188018312003086000030A3
:100010008800E630A4002030A5001030A900A320FD
:10002000A620A9208312031341309F0083160313D7
:10003000073081000E309F000514831203138601E0
:1000400026202F2022283820202814297720A80AAB
:1000500029082802031D2628A92070200800422014
:10006000A80A40082802031D2F284A20A9200800BA
:100070003B20522008005A20A80A40082802031DED
:100080003B280800AC20A30A38082302031D42289D
:10009000A6200800B120A20A39082202031D4A281E
:1000A000A3200800B620A20A39082202031D522804
:1000B000A3200800BB20A30A38082302031D5A28E6
:1000C000A6200800320833020318672008003330E6
:1000D000B2003430B1003530B0003630B70008001F
:1000E0009220A80A29082802031D70280800AC20C5
:1000F000A30A25082302031D77288020A6200800D4
:10010000B1206220A20A24082202031D8028A32015
:100110008A200800B620A20A24082202031D8A2889
:10012000A3200800BB20A30A25082302031D922850
:10013000A6200800A530A600A60B9C2808009A203F
:100140002108880008000030A20008000030A30049
:1001500008000030A8000800E420D420C820E020D7
:10016000080010210021F4200C2108000C21F420AB
:10017000002110210800E020C820D420E42008003D
:100180000130A1009F2008000230A1009F2008003C
:100190000330A1009F2008000430A1009F20080028
:1001A0000530A1009F2008000630A1009F20080014
:1001B0000730A1009F2008000830A1009F20080000
:1001C0000930A1009F2008000C30A1009F200800EA
:1001D0000030A1009F2008001030A1009F200800DF
:1001E0002030A1009F2008003030A1009F2008008F
:1001F0004030A1009F2008005030A1009F2008003F
:100200006030A1009F2008007030A1009F200800EE
:100210008030A1009F2008009030A1009F2008009E
:08022000C030A1009F2008007E
:02400E00713F00
:00000001FF
