:10000000012883168601880188170817831200309B
:10001000860000308800E630A400B0002030A50043
:10002000AF000830A900B1000630BC00E220E52096
:10003000E820EB208312031341309F008316031343
:10004000073081000E309F000514851005118511C1
:100050000512851209108910860183120313091DE8
:100060002F2840204B202A08B6000F22091D3628D1
:100070003C08B6000F22D320382856202F28882A83
:10008000A9202808AD00A80A29082802031D402835
:10009000E820A120080069204E2008006120A80A5D
:1000A00031082802031D4E28E82008005A2071203C
:1000B000EB2008007920A80A31082802031D5A28DD
:1000C0000800EE20A30A25082302031D6128E5206D
:1000D0000800F320A20A30082202031D6928E2204A
:1000E0000800F820A20A30082202031D7128E2202D
:1000F0000800FD20A30A2F082302031D7928E5200C
:100100000800AE002A02031C8C200800013093284E
:100110000130992801309F282E08AA0000302B02B8
:10012000031986282B08B00000302C0203198828F8
:100130002C08AF0000302D0203198A282D08B100C9
:100140000800C620A80A29082802031DA128E820C3
:100150000800EE20A30A25082302031DA928B220C7
:10016000E5200800F3202208AB005621A20A24084B
:100170002202031DB228E220BE200800F820A20AB5
:1001800024082202031DBE28E2200800FD20A30A45
:1001900025082302031DC628E5200800A530A60077
:1001A000A60BD02808004E30A600C430A700A60B2E
:1001B000DA28A70BD728DC2800000800CE20210869
:1001C000860008000030A20008000030A3000800EC
:1001D0000030A80008000030AA00080026211621DF
:1001E0000A21222108005221422136214E210800F5
:1001F0004E21362142215221080022210A211621B6
:10020000262108000130A100DE2008000230A100F4
:10021000DE2008000330A100DE2008000430A10029
:10022000DE2008000530A100DE2008000630A10015
:10023000DE2008000730A100DE2008000830A10001
:10024000DE2008000930A100DE2008000C30A100EB
:10025000DE2008000030A100DE2008001030A100E0
:10026000DE2008002030A100DE2008003030A10090
:10027000DE2008004030A100DE2008005030A10040
:10028000DE2008006030A100DE2008007030A100F0
:10029000DE2008008030A100DE2008009030A100A0
:1002A000DE200800C030A100DE2008000315AE21CA
:1002B0000B111F151F195A291E08B800380862298A
:1002C00081200800D2303802031C6A290030AE00B9
:1002D000BF216029C2303802031C72290130AE00F0
:1002E000C7216029AE303802031C7A290230AE00E3
:1002F000CF2160299E303802031C82290330AE00D2
:10030000D72160298A303802031C8A290430AE00C4
:10031000DF21602975303802031C92290530AE00B8
:10032000E721602952303802031C9A290630AE00BA
:10033000EF21602933303802031CA2290730AE00B8
:10034000F72160291C303802031CAA290830AE00AE
:10035000FF2160290930AE0007226029FF30C0006C
:10036000BF00BE00B4210800C00BB429B8210800AA
:10037000BF0BB829BC210800BE0BBC29080085149E
:1003800005158515051685160914891008008510B0
:1003900005128512091089100515851508008514A8
:1003A0000515051685168914851109100800851490
:1003B00005158515051689140910851208000515FF
:1003C00085150914891485100512851208008515F4
:1003D0000516091489148514851205110800851560
:1003E000051685160914891485140511080085144D
:1003F0000515851505128512091089100800851448
:100400000515851505168516091489140800851427
:100410000515851505160914891485120800003084
:1004200036020319382A013036020319402A0230F5
:1004300036020319482A033036020319502A0430C1
:1004400036020319582A053036020319602A06308D
:1004500036020319682A073036020319702A083059
:1004600036020319782A093036020319802A080057
:100470008514051585150516851609148910372A62
:100480008510051285120910891005158515372A62
:100490008514051505168516891485110910372A46
:1004A0008514051585150516891409108512372A36
:1004B0000515851509148914851005128512372A2A
:1004C0008515051609148914851485120511372A16
:1004D0008515051685160914891485140511372A02
:1004E0008514051585150512851209108910372AFE
:1004F0008514051585150516851609148914372ADE
:100500008514051585150516091489148512372AD1
:02400E00713F00
:00000001FF
