:1000000001288316860188018312003086000030A3
:100010008800E630A400B0002030A500AF00083012
:10002000A900B1000630BC00D220D520D820DB20AA
:100030008312031341309F0083160313073081009E
:100040000E309F00051485100511851105128512CB
:10005000091089108601831203133B2046202A08C9
:10006000B600FF21091D32283C08B600FF213428C4
:1000700051202D28782AA4202808AD00A80A290894
:100080002802031D3B28D8209C200800642049201A
:1000900008005C20A80A31082802031D4928D8203E
:1000A000080055206C20DB2008007420A80A3108C5
:1000B0002802031D55280800DE20A30A2508230274
:1000C000031D5C28D5200800E320A20A3008220284
:1000D000031D6428D2200800E820A20A300822026A
:1000E000031D6C28D2200800ED20A30A2F0823024C
:1000F000031D7428D5200800AE002A02031C8720A7
:10010000080001308E280130942801309A282E08EA
:10011000AA0000302B02031981282B08B000003000
:100120002C02031983282C08AF0000302D0203197C
:1001300085282D08B1000800C120A80A2908280236
:10014000031D9C28D8200800DE20A30A25082302CE
:10015000031DA428AD20D5200800E3202208AB0011
:100160004621A20A24082202031DAD28D220B9206C
:100170000800E820A20A24082202031DB928D22080
:100180000800ED20A30A25082302031DC128D5205D
:100190000800A530A600A60BCB280800C92021081E
:1001A000860008000030A20008000030A30008000C
:1001B0000030A80008000030AA000800162106211F
:1001C000FA20122108004221322126213E21080076
:1001D0003E2126213221422108001221FA20062147
:1001E000162108000130A100CE2008000230A10035
:1001F000CE2008000330A100CE2008000430A1006A
:10020000CE2008000530A100CE2008000630A10055
:10021000CE2008000730A100CE2008000830A10041
:10022000CE2008000930A100CE2008000C30A1002B
:10023000CE2008000030A100CE2008001030A10020
:10024000CE2008002030A100CE2008003030A100D0
:10025000CE2008004030A100CE2008005030A10080
:10026000CE2008006030A100CE2008007030A10030
:10027000CE2008008030A100CE2008009030A100E0
:10028000CE200800C030A100CE20080003159E211A
:100290000B111F151F194A291E08B80038085229CA
:1002A0007C200800D2303802031C5A290030AE00EE
:1002B000AF215029C2303802031C62290130AE0040
:1002C000B7215029AE303802031C6A290230AE0033
:1002D000BF2150299E303802031C72290330AE0022
:1002E000C72150298A303802031C7A290430AE0015
:1002F000CF21502975303802031C82290530AE0009
:10030000D721502952303802031C8A290630AE000A
:10031000DF21502933303802031C92290730AE0008
:10032000E72150291C303802031C9A290830AE00FE
:10033000EF2150290930AE00F7215029FF30C000CD
:10034000BF00BE00A4210800C00BA429A8210800FA
:10035000BF0BA829AC210800BE0BAC2908008514EE
:1003600005158515051685160914891008008510D0
:1003700005128512091089100515851508008514C8
:1003800005150516851689148511091008008514B0
:10039000051585150516891409108512080005151F
:1003A0008515091489148510051285120800851514
:1003B0000516091489148514851205110800851580
:1003C000051685160914891485140511080085146D
:1003D0000515851505128512091089100800851468
:1003E0000515851505168516091489140800851448
:1003F00005158515051609148914851208000030A5
:1004000036020319282A013036020319302A023035
:1004100036020319382A033036020319402A043001
:1004200036020319482A053036020319502A0630CD
:1004300036020319582A073036020319602A083099
:1004400036020319682A093036020319702A080097
:100450008514051585150516851609148910272A92
:100460008510051285120910891005158515272A92
:100470008514051505168516891485110910272A76
:100480008514051585150516891409108512272A66
:100490000515851509148914851005128512272A5A
:1004A0008515051609148914851485120511272A46
:1004B0008515051685160914891485140511272A32
:1004C0008514051585150512851209108910272A2E
:1004D0008514051585150516851609148914272A0E
:1004E0008514051585150516091489148512272A02
:02400E00713F00
:00000001FF
