:1000000001288316860188018312003086000030A3
:100010008800E630A400B0002030A500AF00043016
:10002000A900B100C920CC20CF20D2208312031315
:1000300041309F0083160313073081000E309F006C
:1000400005148510051185110512851209108910F6
:1000500086018312031332203D20F6212E284820EA
:100060002B286F2A9B202808AD00A80A29082802FF
:10007000031D3228CF20932008005B204020080079
:100080005320A80A31082802031D4028CF20080069
:100090004C206320D22008006B20A80A31082802D7
:1000A000031D4C280800D520A30A25082302031DA0
:1000B0005328CC200800DA20A20A30082202031DAF
:1000C0005B28C9200800DF20A20A30082202031D95
:1000D0006328C9200800E420A30A2F082302031D77
:1000E0006B28CC200800AE002A02031C7E200800EA
:1000F0000130852801308B28013091282E08AA0074
:1001000000302B02031978282B08B00000302C0295
:1001100003197A282C08AF0000302D0203197C281F
:100120002D08B1000800B820A80A29082802031DDC
:100130009328CF200800D520A30A25082302031DF9
:100140009B28A420CC200800DA202208AB003D2107
:10015000A20A24082202031DA428C920B0200800F6
:10016000DF20A20A24082202031DB028C9200800AB
:10017000E420A30A25082302031DB828CC20080088
:10018000A530A600A60BC2280800C02021088600C2
:1001900008000030A20008000030A3000800003072
:1001A000A80008000030AA0008000D21FD20F12061
:1001B00009210800392129211D2135210800352177
:1001C0001D212921392108000921F120FD200D21BF
:1001D00008000130A100C52008000230A100C520A0
:1001E00008000330A100C52008000430A100C5208C
:1001F00008000530A100C52008000630A100C52078
:1002000008000730A100C52008000830A100C52063
:1002100008000930A100C52008000C30A100C5204D
:1002200008000030A100C52008001030A100C52042
:1002300008002030A100C52008003030A100C520F2
:1002400008004030A100C52008005030A100C520A2
:1002500008006030A100C52008007030A100C52052
:1002600008008030A100C52008009030A100C52002
:100270000800C030A100C5200800031595210B110E
:100280001F151F1941291E08B80038084929732075
:100290000800D2303802031C51290030AE00A621DC
:1002A0004729C2303802031C59290130AE00AE2163
:1002B0004729AE303802031C61290230AE00B62156
:1002C00047299E303802031C69290330AE00BE2145
:1002D00047298A303802031C71290430AE00C62138
:1002E000472975303802031C79290530AE00CE212C
:1002F000472952303802031C81290630AE00D6212E
:10030000472933303802031C89290730AE00DE212B
:1003100047291C303802031C91290830AE00E62121
:1003200047290930AE00EE214729FF30C000BF0049
:10033000BE009B210800C00B9B299F210800BF0B1A
:100340009F29A3210800BE0BA329080085140515C9
:1003500085150516851609148910080085100512E3
:1003600085120910891005158515080085140515D5
:1003700005168516891485110910080085140515C0
:1003800085150516891409108512080005158515AF
:1003900009148914851005128512080085150516A3
:1003A0000914891485148512051108008515051690
:1003B000851609148914851405110800851405157E
:1003C0008515051285120910891008008514051578
:1003D0008515051685160914891408008514051558
:1003E00085150516091489148512080000302A02A3
:1003F00003191F2A01302A020319272A02302A0270
:1004000003192F2A03302A020319372A04302A023B
:1004100003193F2A05302A020319472A06302A0207
:1004200003194F2A07302A020319572A08302A02D3
:1004300003195F2A09302A020319672A0800851464
:100440000515851505168516091489101E2A8510AF
:100450000512851209108910051585151E2A8514A7
:100460000515051685168914851109101E2A85148F
:100470000515851505168914091085121E2A0515FE
:100480008515091489148510051285121E2A8515F3
:100490000516091489148514851205111E2A85155F
:1004A0000516851609148914851405111E2A85144C
:1004B0000515851505128512091089101E2A851447
:1004C0000515851505168516091489141E2A851427
:0E04D0000515851505160914891485121E2AB6
:02400E00713F00
:00000001FF
