:1000000001288316860188018312003086000030A3
:100010008800E630A400B0002030A500AF0010300A
:10002000A900B100C720CA20CD20D020831203131D
:1000300041309F0083160313073081000E309F006C
:1000400005148510051185110512851209108910F6
:1000500086018312031331203C202D2845202B28B4
:10006000F42997202808AD00A80A29082802031DB2
:100070003128CD20902008005020A80A31082802FD
:10008000031D3C285820CD20080049206020D020A6
:1000900008006820A80A31082802031D4928080022
:1000A000D320A30A2F082302031D5028CA200800CA
:1000B000D820A20A30082202031D5828C7200800B1
:1000C000DD20A20A30082202031D6028C720080094
:1000D000E220A30A2F082302031D6828CA20080073
:1000E000AE002A02031C7B20080001308228013068
:1000F000882801308E282E08AA0000302B02031910
:1001000075282B08B00000302C02031977282C0822
:10011000AF0000302D02031979282D08B100080026
:10012000B620A80A29082802031D90280800D32019
:100130002308AC00A30A25082302031D9728A22048
:10014000CA200800D8202208AB003B21A20A2408BC
:100150002202031DA228C720AE200800DD20A20A2B
:1001600024082202031DAE28C7200800E220A30AAB
:1001700025082302031DB628CA200800A530A600C2
:10018000A60BC0280800BE20210886000800003009
:10019000A20008000030A30008000030A8000800FA
:1001A0000030AA0008000B21FB20EF2007210800E7
:1001B000372127211B213321080033211B2127212F
:1001C000372108000721EF20FB200B210800013018
:1001D000A100C32008000230A100C32008000330A2
:1001E000A100C32008000430A100C320080005308E
:1001F000A100C32008000630A100C320080007307A
:10020000A100C32008000830A100C3200800093065
:10021000A100C32008000C30A100C320080000305A
:10022000A100C32008001030A100C3200800203026
:10023000A100C32008003030A100C32008004030D6
:10024000A100C32008005030A100C3200800603086
:10025000A100C32008007030A100C3200800803036
:10026000A100C32008009030A100C3200800C030C6
:10027000A100C3200800031593210B111F151F199E
:100280003F291E08B8003808472970200800D230DE
:100290003802031C4F290030AE00A4214529C2308A
:1002A0003802031C57290130AE00AC214529AE307D
:1002B0003802031C5F290230AE00B42145299E306C
:1002C0003802031C67290330AE00BC2145298A305F
:1002D0003802031C6F290430AE00C4214529753053
:1002E0003802031C77290530AE00CC214529523055
:1002F0003802031C7F290630AE00D4214529333053
:100300003802031C87290730AE00DC2145291C3048
:100310003802031C8F290830AE00E421452909303A
:10032000AE00EC214529FF30C000BF00BE0099217E
:100330000800C00B99299D210800BF0B9D29A12110
:100340000800BE0BA12908008514051585150516A2
:1003500085160914891008008510051285120910E8
:1003600089100515851508008514051505168516CF
:1003700089148511091008008514051585150516C1
:1003800089140910851208000515851509148914AA
:1003900085100512851208008515051609148914A3
:1003A0008514851205110800851505168516091492
:1003B0008914851405110800851405158515051285
:1003C0008512091089100800851405158515051674
:1003D0008516091489140800851405158515051658
:0803E0000914891485120800BC
:02400E00713F00
:00000001FF
