:10000000012883168601880188170817881483122F
:100010000030860000308800E630A400B0002030B8
:10002000A500AF000830A900B1000630BC000430C4
:10003000D1003B213E21412144218316081707129C
:1000400087120713871307148714071587150814D9
:100050000130C300C2003C08C4002A08C5003C08A7
:10006000C6002A08C7008312031341309F0083167D
:100070000313073081000E309F0005148510051111
:100080008511051285120910891086018312031348
:1000900088184E28091959287D2048288F209A2031
:1000A0003C08C4002A08C5003C08C6002A08C7004E
:1000B0006B28D00A0130500203196B28023050021D
:1000C00003197028033050020319742804305002B9
:1000D0000319782848282A08B6006B22091D4828E9
:1000E0004408B6006B2248284608B6006B22482810
:1000F00047213C08B6006B2248282D21081BE4222A
:100100002D21081834230800A5204828A62B851483
:100110000511851105168516091489100800F820A7
:100120002808AD00A80A29082802031D8F284121AC
:10013000F0200800B8209D200800B020A80A31084F
:100140002802031D9D2841210800A920C020442128
:100150000800C820A80A31082802031DA9280800A1
:100160004A21A30A25082302031DB0283E210800C6
:100170004F21A20A30082202031DB8283B210800A3
:100180005421A20A30082202031DC0283B21080086
:100190005921A30A2F082302031DC8283E21080065
:1001A000AE002A02031CDB2008000130E2280130E7
:1001B000E8280130EE282E08AA0000302B0203198F
:1001C000D5282B08B00000302C020319D7282C08A2
:1001D000AF0000302D020319D9282D08B100080006
:1001E0001521A80A29082802031DF028412108002A
:1001F0004A21A30A25082302031DF82801213E21D4
:1002000008004F212208AB00B221A20A24082202D2
:10021000031D01293B210D2108005421A20A2408B5
:100220002202031D0D293B2108005921A30A25089C
:100230002302031D15293E210800A530A600A60BA8
:100240001F2908004E30A600C430A700A60B29299C
:10025000A70B26292B29000008008730CC0014307A
:10026000CD00CC0B3429CD0B3129362908001D21B6
:100270002108860008000030A20008000030A3001A
:1002800008000030A80008000030AA000800003074
:10029000D00008008221722166217E210800AE2153
:1002A0009E219221AA210800AA2192219E21AE21FD
:1002B00008007E2166217221822108000130A10000
:1002C000372108000230A100372108000330A100C7
:1002D000372108000430A100372108000530A100B3
:1002E000372108000630A100372108000730A1009F
:1002F000372108000830A100372108000930A1008B
:10030000372108000C30A100372108000030A1007F
:10031000372108001030A100372108002030A1004B
:10032000372108003030A100372108004030A100FB
:10033000372108005030A100372108006030A100AB
:10034000372108007030A100372108008030A1005B
:10035000372108009030A10037210800C030A100EB
:100360003721080003150A220B111F151F19B62982
:100370001E08B8003808BE29D0200800D230380244
:10038000031CC6290030AE001B22BC29C230380233
:10039000031CCE290130AE002322BC29AE30380226
:1003A000031CD6290230AE002B22BC299E30380215
:1003B000031CDE290330AE003322BC298A30380208
:1003C000031CE6290430AE003B22BC2975303802FC
:1003D000031CEE290530AE004322BC2952303802FE
:1003E000031CF6290630AE004B22BC2933303802FC
:1003F000031CFE290730AE005322BC291C303802F2
:10040000031C062A0830AE005B22BC290930AE006E
:100410006322BC29FF30C000BF00BE0010220800CC
:10042000C00B102A14220800BF0B142A182208003F
:10043000BE0B182A080085140515851505168516A6
:1004400009148910080085100512851209108910F9
:1004500005158515080085140515051685168914DA
:1004600085110910080085140515851505168914D0
:1004700009108512080005158515091489148510C1
:1004800005128512080085150516091489148514AE
:10049000851205110800851505168516091489149D
:1004A000851405110800851405158515051285129A
:1004B000091089100800851405158515051685167F
:1004C00009148914080085140515851505160914E5
:1004D000891485120800003036020319942A01306D
:1004E000360203199C2A023036020319A42A03306B
:1004F00036020319AC2A043036020319B42A053037
:1005000036020319BC2A063036020319C42A073002
:1005100036020319CC2A083036020319D42A0930CE
:1005200036020319DC2A0800851405158515051601
:10053000851609148910932A851005128512091051
:10054000891005158515932A851405150516851638
:10055000891485110910932A85140515851505162A
:10056000891409108512932A051585150914891413
:10057000851005128512932A85150516091489140C
:10058000851485120511932A8515051685160914FB
:10059000891485140511932A8514051585150512EE
:1005A000851209108910932A8514051585150516DD
:1005B000851609148914932A8514051585150516C1
:1005C000091489148512932A2D210130430203193D
:1005D0001C232D2102304302031922232D21033035
:1005E0004302031928232D210430430203192E232B
:1005F0002D210530430203195623C30A0800211890
:100600000C2B0E2BA118102B122B2119142B162B8F
:10061000A119182B1A2B08000716022B0716022BFC
:100620008716052B8716052B0717082B0717082B8E
:1006300087170B2B87170B2B4408A100FF22081BE1
:100640001C2B08004508A100FF22081B222B0800D4
:100650004608A100FF22081B282B08004708A1001C
:10066000FF22081B2E2B08002D2101304202031906
:1006700078232D210230420203197E232D210330DD
:100680004202031984232D210430420203198A23D4
:100690002D210530420203194F23C20A0800003001
:1006A000C20090239B2308184F2B08000030C30082
:1006B000081B562B080021146E2B21106E2BA11441
:1006C000712BA110712B2115742B2111742BA115E5
:1006D000772BA111772B87195B2B5D2B07195F2BCC
:1006E000612B8718632B652B0718672B692B080074
:1006F0006B232108C8000818782B08006B232108F9
:10070000C90008187E2B08006B232108CA000818AE
:10071000842B08006B232108CB0008188A2B0800C3
:1007200045084902031C9A2B952B4808C400490828
:10073000C5000800080047084B02031CA02BA52B8E
:0C0740004A08C6004B08C700080008006B
:02400E00713F00
:00000001FF
