:1000000001288316860188018312003086000030A3
:100010008800E630A4002030A5001030A900A220FE
:10002000A520A8208312031341309F0083160313D9
:10003000073081000E309F000514831203138601E0
:1000400025202E202228372020287620A80A2908BB
:100050002802031D2528A8206F2008004120A80A97
:1000600040082802031D2E284920A82008003A2015
:10007000512008005920A80A40082802031D3A28E8
:100080000800AB20A30A38082302031D4128A5203D
:100090000800B020A20A39082202031D4928A22024
:1000A0000800B520A20A39082202031D5128A22007
:1000B0000800BA20A30A38082302031D5928A520E6
:1000C0000800320833020318662008003330B200FB
:1000D0003430B1003530B0003630B7000800912020
:1000E000A80A29082802031D6F280800AB20A30ACC
:1000F00025082302031D76287F20A5200800B020B4
:100100006120A20A24082202031D7F28A220892040
:100110000800B520A20A24082202031D8928A22073
:100120000800BA20A30A25082302031D9128A52050
:100130000800A530A600A60B9B28080099202108DE
:10014000880008000030A20008000030A30008006A
:100150000030A8000800E320D320C720DF200800DB
:100160000F21FF20F3200B2108000B21F320FF209B
:100170000F210800DF20C720D320E3200800013032
:10018000A1009E2008000230A1009E20080003303C
:10019000A1009E2008000430A1009E200800053028
:1001A000A1009E2008000630A1009E200800073014
:1001B000A1009E2008000830A1009E200800093000
:1001C000A1009E2008000C30A1009E2008000030F5
:1001D000A1009E2008001030A1009E2008002030C1
:1001E000A1009E2008003030A1009E200800403071
:1001F000A1009E2008005030A1009E200800603021
:10020000A1009E2008007030A1009E2008008030D0
:10021000A1009E2008009030A1009E200800C03060
:06022000A1009E20080071
:02400E00713F00
:00000001FF
