:10000000012883168601880188170817881483122F
:100010000030860000308800E630A400B0002030B8
:10002000A500AF000830A900B1000630BC000430C4
:10003000D1000730AA004C214F2152218316081706
:1000400007128712071387130710871007118711EC
:1000500008140130C300C2003C08C4002A08C500CF
:100060003C08C6002A08C7008312031341309F00D2
:1000700083160313073081000E309F00051485108E
:100080000511851105128512091089108601831248
:10009000031388185F2809194E2849282A08B60032
:1000A0007C22881C4E2849282A08B6007C22081F7A
:1000B00054283C08B6007C22091D59285428A02049
:1000C000AB203C08C4002A08C5003C08C6002A082A
:1000D000C7004E28D00A0130500203197C28023094
:1000E0005002031981280330500203198528043077
:1000F00050020319892849282A08B6007C22091DC4
:1001000049284408B6007C2249284608B6007C22CB
:10011000492858213C08B6007C2249283E21081B6A
:100120001D233E2108186D230800B6204928DF2B27
:100130008514051185110516851609148910080006
:1001400009212808AD00A80A29082802031DA028B3
:10015000522101210800C920AE200800C120A80AB0
:1001600031082802031DAE2852210800BA20D120F0
:1001700055210800D920A80A31082802031DBA28F1
:1001800008005B21A30A25082302031DC1284F2173
:1001900008006021A20A30082202031DC9284C2150
:1001A00008006521A20A30082202031DD1284C2133
:1001B00008006A21A30A2F082302031DD9284F2112
:1001C0000800AE002A02031CEC2008000130F328CE
:1001D0000130F9280130FF282E08AA0000302B0238
:1001E0000319E6282B08B00000302C020319E82878
:1001F0002C08AF0000302D020319EA282D08B100A9
:1002000008002621A80A29082802031D01295221D5
:1002100008005B21A30A25082302031D09291221D6
:100220004F21080060212208AB00C321A20A240844
:100230002202031D12294C211E2108006521A20A59
:1002400024082202031D1E294C2108006A21A30A4A
:1002500025082302031D26294F210800A530A600EA
:10026000A60B302908004E30A600C430A700A60B0C
:100270003A29A70B37293C29000008008730CC0019
:100280001430CD00CC0B4529CD0B4229472908005D
:100290002E212108860008000030A200080000304E
:1002A000A30008000030A80008000030AA000800E1
:1002B0000030D00008009321832177218F2108008E
:1002C000BF21AF21A321BB210800BB21A321AF2166
:1002D000BF2108008F21772183219321080001305D
:1002E000A100482108000230A10048210800033085
:1002F000A100482108000430A10048210800053071
:10030000A100482108000630A1004821080007305C
:10031000A100482108000830A10048210800093048
:10032000A100482108000C30A1004821080000303D
:10033000A100482108001030A10048210800203009
:10034000A100482108003030A100482108004030B9
:10035000A100482108005030A10048210800603069
:10036000A100482108007030A10048210800803019
:10037000A100482108009030A10048210800C030A9
:10038000A1004821080003151B220B111F151F197E
:10039000C7291E08B8003808CF29E1200800D2304C
:1003A0003802031CD7290030AE002C22CD29C230E0
:1003B0003802031CDF290130AE003422CD29AE30D3
:1003C0003802031CE7290230AE003C22CD299E30C2
:1003D0003802031CEF290330AE004422CD298A30B5
:1003E0003802031CF7290430AE004C22CD297530A9
:1003F0003802031CFF290530AE005422CD295230AB
:100400003802031C072A0630AE005C22CD293330A7
:100410003802031C0F2A0730AE006422CD291C309D
:100420003802031C172A0830AE006C22CD2909308F
:10043000AE007422CD29FF30C000BF00BE002122D3
:100440000800C00B212A25220800BF0B252A2922DB
:100450000800BE0B292A0800851405158515051608
:1004600085160914891008008510051285120910D7
:1004700089100515851508008514051505168516BE
:1004800089148511091008008514051585150516B0
:100490008914091085120800051585150914891499
:1004A0008510051285120800851505160914891492
:1004B0008514851205110800851505168516091481
:1004C0008914851405110800851405158515051274
:1004D0008512091089100800851405158515051663
:1004E0008516091489140800851405158515051647
:1004F0000914891485120800003036020319A52A50
:10050000013036020319B12A023036020319BD2A1E
:10051000033036020319C92A043036020319D52ADA
:10052000053036020319E12A063036020319ED2A96
:10053000073036020319F92A083036020319052B51
:10054000093036020319112B08008514051585158D
:1005500005168516091489100710871007118711D1
:10056000A42A851005128512091089100515851514
:100570000714871007118711A42A8514051505167D
:100580008516891485110910071087140711871122
:10059000A42A8514051585150516891409108512D8
:1005A0000714871407118711A42A05158515091446
:1005B00089148510051285120710871007158711F9
:1005C000A42A8515051609148914851485120511A8
:1005D0000714871007158711A42A85150516851697
:1005E000091489148514051107108714071587113C
:1005F000A42A851405158515051285120910891080
:100600000714871407158711A42A85140515851565
:100610000516851609148914071087100711871508
:10062000A42A851405158515051609148914851243
:100630000714871007118715A42A3E2101304302B1
:10064000031955233E210230430203195B233E2147
:1006500003304302031961233E210430430203198E
:1006600067233E210530430203198F23C30A080084
:100670002118452B472BA118492B4B2B21194D2B0A
:100680004F2BA119512B532B080007163B2B071694
:100690003B2B87163E2B87163E2B0717412B071740
:1006A000412B8717442B8717442B4408A10038237C
:1006B000081B552B08004508A1003823081B5B2B9D
:1006C00008004608A1003823081B612B08004708D2
:1006D000A1003823081B672B08003E21013042028D
:1006E0000319B1233E21023042020319B7233E21F0
:1006F000033042020319BD233E2104304202031994
:10070000C3233E210530420203198823C20A080090
:100710000030C200C923D4230818882B08000030F9
:10072000C300081B8F2B08002114A72B2110A72B17
:10073000A114AA2BA110AA2B2115AD2B2111AD2B91
:10074000A115B02BA111B02B8719942B962B07194B
:10075000982B9A2B87189C2B9E2B0718A02BA22B2B
:100760000800A4232108C8000818B12B0800A423FE
:100770002108C9000818B72B0800A4232108CA00C3
:100780000818BD2B0800A4232108CB000818C32B90
:10079000080045084902031CD32BCE2B4808C4008F
:1007A0004908C5000800080047084B02031CD92B64
:0E07B000DE2B4A08C6004B08C70008000800F0
:02400E00713F00
:00000001FF
