:1000000001288316860188018312003086000030A3
:100010008800E630A400B0002030A500AF00083012
:10002000A900B1000630BC00DE20E120E420E7207A
:100030008312031341309F0083160313073081009E
:100040000E309F00051485100511851105128512CB
:10005000091089108601831203133C2047202A08C7
:10006000B6000B22091D32283C08B6000B22CF2017
:10007000342852202D28842AA5202808AD00A80A5B
:1000800029082802031D3C28E4209D200800652043
:100090004A2008005D20A80A31082802031D4A28CA
:1000A000E420080056206D20E72008007520A80AEB
:1000B00031082802031D56280800EA20A30A250853
:1000C0002302031D5D28E1200800EF20A20A30086A
:1000D0002202031D6528DE200800F420A20A300851
:1000E0002202031D6D28DE200800F920A30A2F0834
:1000F0002302031D7528E1200800AE002A02031C1C
:100100008820080001308F280130952801309B2875
:100110002E08AA0000302B02031982282B08B000F9
:1001200000302C02031984282C08AF0000302D0267
:10013000031986282D08B1000800C220A80A290842
:100140002802031D9D28E4200800EA20A30A2508B0
:100150002302031DA528AE20E1200800EF2022087D
:10016000AB005221A20A24082202031DAE28DE2081
:10017000BA200800F420A20A24082202031DBA288B
:10018000DE200800F920A30A25082302031DC22847
:10019000E1200800A530A600A60BCC2808004E30B0
:1001A000A600C430A700A60BD628A70BD328D828B2
:1001B00000000800CA202108860008000030A200C4
:1001C00008000030A30008000030A800080000303C
:1001D000AA0008002221122106211E2108004E211A
:1001E0003E2132214A2108004A2132213E214E215E
:1001F00008001E2106211221222108000130A10041
:10020000DA2008000230A100DA2008000330A10043
:10021000DA2008000430A100DA2008000530A1002F
:10022000DA2008000630A100DA2008000730A1001B
:10023000DA2008000830A100DA2008000930A10007
:10024000DA2008000C30A100DA2008000030A100FC
:10025000DA2008001030A100DA2008002030A100C8
:10026000DA2008003030A100DA2008004030A10078
:10027000DA2008005030A100DA2008006030A10028
:10028000DA2008007030A100DA2008008030A100D8
:10029000DA2008009030A100DA200800C030A10068
:1002A000DA2008000315AA210B111F151F19562962
:1002B0001E08B80038085E297D200800D2303802B8
:1002C000031C66290030AE00BB215C29C230380215
:1002D000031C6E290130AE00C3215C29AE30380208
:1002E000031C76290230AE00CB215C299E303802F7
:1002F000031C7E290330AE00D3215C298A303802EA
:10030000031C86290430AE00DB215C2975303802DD
:10031000031C8E290530AE00E3215C2952303802DF
:10032000031C96290630AE00EB215C2933303802DD
:10033000031C9E290730AE00F3215C291C303802D3
:10034000031CA6290830AE00FB215C290930AE0051
:1003500003225C29FF30C000BF00BE00B0210800AE
:10036000C00BB029B4210800BF0BB429B821080084
:10037000BE0BB829080085140515851505168516C8
:1003800009148910080085100512851209108910BA
:10039000051585150800851405150516851689149B
:1003A0008511091008008514051585150516891491
:1003B0000910851208000515851509148914851082
:1003C000051285120800851505160914891485146F
:1003D000851205110800851505168516091489145E
:1003E000851405110800851405158515051285125B
:1003F0000910891008008514051585150516851640
:1004000009148914080085140515851505160914A5
:10041000891485120800003036020319342A01308D
:10042000360203193C2A023036020319442A0330EB
:10043000360203194C2A043036020319542A0530B7
:10044000360203195C2A063036020319642A073083
:10045000360203196C2A083036020319742A09304F
:10046000360203197C2A0800851405158515051622
:10047000851609148910332A851005128512091072
:10048000891005158515332A851405150516851659
:10049000891485110910332A85140515851505164B
:1004A000891409108512332A051585150914891434
:1004B000851005128512332A85150516091489142D
:1004C000851485120511332A85150516851609141C
:1004D000891485140511332A85140515851505120F
:1004E000851209108910332A8514051585150516FE
:1004F000851609148914332A8514051585150516E2
:08050000091489148512332A45
:02400E00713F00
:00000001FF
