:1000000001288316860188018312003086000030A3
:100010008800E630A4002030A5001030A900AC20F4
:10002000AF20B2200030B2008312031341309F0092
:1000300083160313073081000E309F0005148510CE
:100040000511851105128512091089108601831288
:1000500003132F2038202B2841202928D72980203E
:10006000A80A29082802031D2F28B2207920080099
:100070004B20A80A40082802031D38285320B2202C
:10008000080044205B2008006320A80A40082802DA
:10009000031D44280800B520A30A38082302031DC5
:1000A0004B28AF200800BA20A20A39082202031DFB
:1000B0005328AC200800BF20A20A39082202031DE1
:1000C0005B28AC200800C420A30A38082302031DC3
:1000D0006328AF20080032083302031C70208B28ED
:1000E0003330B2003430B1003530B0003630B700B4
:1000F00008009B20A80A29082802031D7928080067
:10010000B520A30A25082302031D80288920AF20DB
:100110000800BA201D29A20A24082202031D8928EA
:10012000AC2093200800BF20A20A24082202031D4D
:100130009328AC200800C420A30A25082302031D2D
:100140009B28AF200800A530A600A60BA528080014
:10015000A3202108860008000030A200080000301B
:10016000A30008000030A8000800ED20DD20D12009
:10017000E920080019210921FD2015210800152179
:10018000FD20092119210800E920D120DD20ED20E2
:1001900008000130A100A82008000230A100A8201A
:1001A00008000330A100A82008000430A100A82006
:1001B00008000530A100A82008000630A100A820F2
:1001C00008000730A100A82008000830A100A820DE
:1001D00008000930A100A82008000C30A100A820C8
:1001E00008000030A100A82008001030A100A820BD
:1001F00008002030A100A82008003030A100A8206D
:1002000008004030A100A82008005030A100A8201C
:1002100008006030A100A82008007030A100A820CC
:1002200008008030A100A82008009030A100A8207C
:100230000800C030A100A8200800031576210B118A
:100240001F151F1921291E08C60046082A295130EA
:10025000B3006B28D2304602031C32290030D10093
:1002600087212729C2304602031C3A290130D100D8
:100270008F212729AE304602031C42290230D100CB
:10028000972127299E304602031C4A290330D100BA
:100290009F2127298A304602031C52290430D100AD
:1002A000A721272975304602031C5A290530D100A1
:1002B000AF21272952304602031C62290630D100A3
:1002C000B721272933304602031C6A290730D100A1
:1002D000BF2127291C304602031C72290830D10097
:1002E000C72127290930D100CF212729FF30D40089
:1002F000D300D2007C210800D40B7C298021080087
:10030000D30B802984210800D20B8429080085148E
:100310000515851505168516091489100800851020
:100320000512851209108910051585150800851418
:100330000515051685168914851109100800851400
:10034000051585150516891409108512080005156F
:100350008515091489148510051285120800851564
:1003600005160914891485148512051108008515D0
:1003700005168516091489148514051108008514BD
:1003800005158515051285120910891008008514B8
:100390000515851505168516091489140800851498
:0E03A000051585150516091489148512080027
:02400E00713F00
:00000001FF
