:10000000012883168601880188170817881483122F
:100010000030860000308800E630A400B0002030B8
:10002000A500AF000830A900B1000630BC000430C4
:10003000D100452148214B214E2183160817071274
:1000400087120713871307108710071187110814E9
:100050000130C300C2003C08C4002A08C5003C08A7
:10006000C6002A08C7008312031341309F0083167D
:100070000313073081000E309F0005148510051111
:100080008511051285120910891086018312031348
:100090008818582809194D2848282A08B6007522BA
:1000A000081F4D283C08B6007522091D52284D280E
:1000B0009920A4203C08C4002A08C5003C08C600BA
:1000C0002A08C7007528D00A013050020319752884
:1000D0000230500203197A280330500203197E2897
:1000E000043050020319822848282A08B6007522D5
:1000F000091D48284408B600752248284608B6005D
:100100007522482851213C08B6007522482837211D
:10011000081B16233721081866230800AF2048283B
:10012000D82B85140511851105168516091489101B
:10013000080002212808AD00A80A29082802031D8A
:1001400099284B21FA200800C220A7200800BA20D5
:10015000A80A31082802031DA7284B210800B32054
:10016000CA204E210800D220A80A31082802031D07
:10017000B32808005421A30A25082302031DBA2826
:10018000482108005921A20A30082202031DC22872
:10019000452108005E21A20A30082202031DCA2858
:1001A000452108006321A30A2F082302031DD2283A
:1001B00048210800AE002A02031CE5200800013097
:1001C000EC280130F2280130F8282E08AA0000306F
:1001D0002B020319DF282B08B00000302C02031972
:1001E000E1282C08AF0000302D020319E3282D0868
:1001F000B10008001F21A80A29082802031DFA28B7
:100200004B2108005421A30A25082302031D0229BB
:100210000B214821080059212208AB00BC21A20A69
:1002200024082202031D0B294521172108005E2105
:10023000A20A24082202031D172945210800632170
:10024000A30A25082302031D1F2948210800A53001
:10025000A600A60B292908004E30A600C430A7002E
:10026000A60B3329A70B3029352900000800873059
:10027000CC001430CD00CC0B3E29CD0B3B294029BE
:10028000080027212108860008000030A20008008D
:100290000030A30008000030A80008000030AA00C9
:1002A00008000030D00008008C217C2170218821BA
:1002B0000800B821A8219C21B4210800B4219C2168
:1002C000A821B8210800882170217C218C210800F8
:1002D0000130A100412108000230A10041210800A5
:1002E0000330A100412108000430A1004121080091
:1002F0000530A100412108000630A100412108007D
:100300000730A100412108000830A1004121080068
:100310000930A100412108000C30A1004121080052
:100320000030A100412108001030A1004121080047
:100330002030A100412108003030A10041210800F7
:100340004030A100412108005030A10041210800A7
:100350006030A100412108007030A1004121080057
:100360008030A100412108009030A1004121080007
:10037000C030A10041210800031514220B111F15E4
:100380001F19C0291E08B8003808C829DA2008003B
:10039000D2303802031CD0290030AE002522C629F5
:1003A000C2303802031CD8290130AE002D22C629E4
:1003B000AE303802031CE0290230AE003522C629D7
:1003C0009E303802031CE8290330AE003D22C629C6
:1003D0008A303802031CF0290430AE004522C629B9
:1003E00075303802031CF8290530AE004D22C629AD
:1003F00052303802031C002A0630AE005522C629AE
:1004000033303802031C082A0730AE005D22C629AB
:100410001C303802031C102A0830AE006522C629A1
:100420000930AE006D22C629FF30C000BF00BE00FB
:100430001A220800C00B1A2A1E220800BF0B1E2A0F
:1004400022220800BE0B222A0800851405158515F6
:1004500005168516091489100800851005128512E5
:100460000910891005158515080085140515051650
:100470008516891485110910080085140515851540
:10048000051689140910851208000515851509142B
:1004900089148510051285120800851505160914A2
:1004A0008914851485120511080085150516851611
:1004B000091489148514051108008514051585157E
:1004C0000512851209108910080085140515851577
:1004D0000516851609148914080085140515851557
:1004E0000516091489148512080000303602031914
:1004F0009E2A013036020319AA2A02303602031955
:10050000B62A033036020319C22A04303602031910
:10051000CE2A053036020319DA2A063036020319CC
:10052000E62A073036020319F22A08303602031988
:10053000FE2A0930360203190A2B08008514051516
:1005400085150516851609148910071087100711DF
:1005500087119D2A8510051285120910891005152D
:10056000851507148710071187119D2A8514051515
:1005700005168516891485110910071087140711AF
:1005800087119D2A851405158515051689140910EE
:10059000851207148714071187119D2A05158515E3
:1005A0000914891485100512851207108710071584
:1005B00087119D2A8515051609148914851485123D
:1005C000051107148710071587119D2A8515051633
:1005D0008516091489148514051107108714071549
:1005E00087119D2A85140515851505128512091098
:1005F000891007148714071587119D2A851405157E
:10060000851505168516091489140710871007111A
:1006100087159D2A85140515851505160914891455
:10062000851207148710071187159D2A372101307D
:10063000430203194E233721023043020319542386
:1006400037210330430203195A2337210430430270
:100650000319602337210530430203198823C30A95
:10066000080021183E2B402BA118422B442B2119A6
:10067000462B482BA1194A2B4C2B08000716342B6C
:100680000716342B8716372B8716372B07173A2B6D
:1006900007173A2B87173D2B87173D2B4408A100DE
:1006A0003123081B4E2B08004508A1003123081BED
:1006B000542B08004608A1003123081B5A2B0800C0
:1006C0004708A1003123081B602B080037210130A7
:1006D00042020319AA233721023042020319B02330
:1006E0003721033042020319B62337210430420276
:1006F0000319BC2337210530420203198123C20AA2
:1007000008000030C200C223CD230818812B080046
:100710000030C300081B882B08002114A02B2110D7
:10072000A02BA114A32BA110A32B2115A62B2111C3
:10073000A62BA115A92BA111A92B87198D2B8F2BC6
:100740000719912B932B8718952B972B0718992B0B
:100750009B2B08009D232108C8000818AA2B08001D
:100760009D232108C9000818B02B08009D232108EB
:10077000CA000818B62B08009D232108CB000818D2
:10078000BC2B080045084902031CCC2BC72B48088A
:10079000C4004908C5000800080047084B02031CB4
:1007A000D22BD72B4A08C6004B08C7000800080008
:02400E00713F00
:00000001FF
