:10000000012883168601880188170817831200309B
:10001000860000308800E630A400B0002030A50043
:10002000AF000830A900B1000630BC0017211A212A
:100030001D21202183160817071287120713871323
:10004000071487140715871508140130C300C20070
:100050008312031341309F0083160313073081007E
:100060000E309F00051485100511851105128512AB
:1000700009108910860183120313091D3D286B2086
:1000800076202A08B6004422091D44283C08C400F2
:100090002A08C5003C08C6002A08C7000921081B19
:1000A000BD22092108180D23091D4E284408B60059
:1000B0004422091D56284608B6004422FE20091D88
:1000C0005B283C08B6004422FE20091D6128412817
:1000D00081203D287F2BD4202808AD00A80A2908BC
:1000E0002802031D6B281D21CC20080094207920B4
:1000F00008008C20A80A31082802031D79281D2138
:10010000080085209C2020210800A420A80A31088E
:100110002802031D852808002321A30A250823029D
:10012000031D8C281A2108002821A20A3008220267
:10013000031D9428172108002D21A20A300822024D
:10014000031D9C28172108003221A30A2F0823022F
:10015000031DA4281A210800AE002A02031CB720A0
:1001600008000130BE280130C4280130CA282E08FA
:10017000AA0000302B020319B1282B08B000003070
:100180002C020319B3282C08AF0000302D020319EC
:10019000B5282D08B1000800F120A80A2908280276
:1001A000031DCC281D2108002321A30A25082302B2
:1001B000031DD428DD201A21080028212208AB00C5
:1001C0008B21A20A24082202031DDD281721E92021
:1001D00008002D21A20A24082202031DE928172164
:1001E00008003221A30A25082302031DF1281A2141
:1001F0000800A530A600A60BFB2808004E30A6007C
:10020000C430A700A60B0529A70B02290729000067
:1002100008008730CC001430CD00CC0B1029CD0B5A
:100220000D2912290800F920210886000800003055
:10023000A20008000030A30008000030A800080059
:100240000030AA0008005B214B213F215721080004
:10025000872177216B218321080083216B2177215E
:100260008721080057213F214B215B2108000130E5
:10027000A100132108000230A1001321080003305F
:10028000A100132108000430A1001321080005304B
:10029000A100132108000630A10013210800073037
:1002A000A100132108000830A10013210800093023
:1002B000A100132108000C30A10013210800003018
:1002C000A100132108001030A100132108002030E4
:1002D000A100132108003030A10013210800403094
:1002E000A100132108005030A10013210800603044
:1002F000A100132108007030A100132108008030F4
:10030000A100132108009030A10013210800C03083
:10031000A100132108000315E3210B111F151F195C
:100320008F291E08B80038089729AC200800D23061
:100330003802031C9F290030AE00F4219529C230F9
:100340003802031CA7290130AE00FC219529AE30EC
:100350003802031CAF290230AE00042295299E30DA
:100360003802031CB7290330AE000C2295298A30CD
:100370003802031CBF290430AE00142295297530C1
:100380003802031CC7290530AE001C2295295230C3
:100390003802031CCF290630AE00242295293330C1
:1003A0003802031CD7290730AE002C2295291C30B7
:1003B0003802031CDF290830AE00342295290930A9
:1003C000AE003C229529FF30C000BF00BE00E921ED
:1003D0000800C00BE929ED210800BF0BED29F12130
:1003E0000800BE0BF12908008514051585150516B2
:1003F0008516091489100800851005128512091048
:10040000891005158515080085140515051685162E
:100410008914851109100800851405158515051620
:100420008914091085120800051585150914891409
:100430008510051285120800851505160914891402
:1004400085148512051108008515051685160914F1
:1004500089148514051108008514051585150512E4
:1004600085120910891008008514051585150516D3
:1004700085160914891408008514051585150516B7
:1004800009148914851208000030360203196D2AF8
:10049000013036020319752A0230360203197D2A0B
:1004A000033036020319852A0430360203198D2AD7
:1004B000053036020319952A0630360203199D2AA3
:1004C000073036020319A52A083036020319AD2A6F
:1004D000093036020319B52A08008514051585155B
:1004E00005168516091489106C2A851005128512C7
:1004F00009108910051585156C2A85140515051632
:1005000085168914851109106C2A85140515851521
:1005100005168914091085126C2A0515851509140C
:1005200089148510051285126C2A85150516091483
:1005300089148514851205116C2A851505168516F2
:1005400009148914851405116C2A8514051585155F
:1005500005128512091089106C2A85140515851558
:1005600005168516091489146C2A85140515851538
:1005700005160914891485126C2A092101304302D9
:100580000319F5220921023043020319FB22092134
:1005900003304302031901230921043043020319E4
:1005A000072309210530430203192F23C30A08003A
:1005B0002118E52AE72AA118E92AEB2A2119ED2AB0
:1005C000EF2AA119F12AF32A08000716DB2A0716D9
:1005D000DB2A8716DE2A8716DE2A0717E12A071785
:1005E000E12A8717E42A8717E42A4408A100D822C1
:1005F000081BF52A08004508A100D822081BFB2A81
:1006000008004608A100D822081B012B0800470853
:10061000A100D822081B072B080009210130420243
:1006200003195123092102304202031957230921DA
:100630000330420203195D230921043042020319E9
:10064000632309210530420203192823C20A080046
:100650000030C200692374230818282B08000030DA
:10066000C300081B2F2B08002114472B2110472BF8
:10067000A1144A2BA1104A2B21154D2B21114D2BD2
:10068000A115502BA111502B8719342B362B07198C
:10069000382B3A2B87183C2B3E2B0718402B422B2C
:1006A000080044232108C8000818512B08004423DF
:1006B0002108C9000818572B080044232108CA0044
:1006C00008185D2B080044232108CB000818632B71
:1006D000080045084902031C732B6E2B4808C40010
:1006E0004908C5000800080047084B02031C792B85
:0E06F0007E2B4A08C6004B08C7000800080011
:02400E00713F00
:00000001FF
